:100000000EC026C025C024C023C022C021C020C0ED
:100010001FC01EC01DC01CC01BC01AC019C01124A7
:100020001FBECFEDCDBF10E0A0E6B0E0E4E3F1E00D
:1000300002C005900D92A636B107D9F710E0A6E6EA
:10004000B0E001C01D92A636B107E1F73ED070C006
:10005000D7CF90E004C028B3282B28BB9F5F96170A
:10006000D1F7809598B3982398BBFCCF882311F0E3
:10007000C09A0895C0980895882311F0C19A0895F0
:10008000C1980895882311F0C49A0895C4980895DA
:10009000CF93C82F8170F6DF8C2F8270EDDF8C2F0D
:1000A0008470E4DFCF910895B399FECF83EC99E09B
:1000B0000197F1F700C00000B39BFECF83EC99E0FD
:1000C0000197F1F700C000000895CF93DF93CDB7FB
:1000D000DEB7C650CDBFC39A83E187BBDE01119660
:1000E000E0E6F0E085E001900D928150E1F790E0CC
:1000F00015E0E1E0F0E0EC0FFD1FE90FF11D80815C
:10010000B39B02C060E0A5DF892F8F5F612F04D011
:100110009E83CADF9E81EDCF991B79E004C0991FB1
:10012000961708F0961B881F7A95C9F78095089551
:04013000F894FFCF71
:06013400000102111000A1
:00000001FF
