:100000000EC026C075C024C023C022C021C020C09D
:100010001FC01EC01DC01CC01BC01AC019C01124A7
:100020001FBECFEDCDBF10E0A0E6B0E0EAE0F2E009
:1000300002C005900D92AA3CB107D9F710E0AAECD6
:10004000B0E001C01D92AC3CB107E1F77AD0DBC053
:10005000D7CF98B3962B98BB90E00097B1F020E0F3
:1000600030E000002F5F3F4F28173907D4F328B343
:100070006095622368BB8034910534F400000196DA
:1000800080349105D9F70895089528B360956223C7
:1000900068BBF4CFE5E6F0E0682F60959091CA0068
:1000A000992329F5219198B3982B98BB30E021151D
:1000B0003105C9F040E050E000004F5F5F4F42174C
:1000C0005307D4F398B3962398BB2034310534F406
:1000D00000002F5F3F4F20343105D1F790E0EA3C1C
:1000E000F907E1F6089598B3962398BBF1CF0895E8
:1000F0001F920F920FB60F9211248F939F9380E857
:1001000086BD81E086BDB39912C08091CB008F5F20
:100110008093CB008091CB00853081F081E080938B
:10012000CA0087EC90E00197F1F700C000009F91B2
:100130008F910F900FBE0F901F9018951092CB00CB
:10014000EDCF1092CB0083E187BB88E088BB25E030
:100150002A95F1F700008BB780628BBFAB9A789439
:1001600080B5816080BD80B5886080BD80B58260CB
:1001700080BD60E8A8E071E01092CA00E091CB0079
:10018000F0E0E05AFF4F4081E5E6F0E0542F509553
:100190008091CA008823F1F4819198B3942B98BB85
:1001A00090E0009761F120E030E000002F5F3F4FCA
:1001B00028173907D4F328B3252328BB80349105A9
:1001C0002CF40000019680349105D9F780E0EA3CD8
:1001D000F807F1F688B38C7E88BB66BDA6BD8CE9B6
:1001E00090E002C0019741F025E02A95F1F7000068
:1001F0002091CA002223B1F366BD76BDBDCF28B3DE
:0A020000252328BBDECFF894FFCFC2
:10020A0000010210120000000001010203030406AB
:10021A0007080A0B0D0E10121416181A1B1D20229D
:10022A00242527292B2D2F313234353738393B3CB9
:10023A003C3D3E3E3F3F3F403F3F3F3E3E3D3C3CD4
:10024A003B393837353432312F2D2B2927252422B3
:10025A00201D1B1A18161412100E0D0B0A08070679
:0A026A00040303020101000000007C
:00000001FF
