:100000000EC026C025C024C023C022C021C020C0ED
:100010001FC01EC01DC01CC01BC01AC019C01124A7
:100020001FBECFEDCDBF10E0A0E6B0E0E6EEF1E000
:1000300002C005900D92AA3CB107D9F710E0AAECD6
:10004000B0E001C01D92AA3CB107E1F77DD0C9C064
:10005000D7CF81E083BF83E08ABD83B7886083BF49
:100060008AB580628ABD90E499BD80E288BD21EEA8
:1000700020BF20E62CBD8EBD8BBD9DBD089588237D
:1000800011F0C09A0895C0980895882311F0C19A7C
:100090000895C1980895882311F0C49A0895C498CA
:1000A0000895CF93C82F8170F6DF8C2F8270EDDF1B
:1000B0008C2F8470E4DFCF910895B399FECF83EC49
:1000C00099E00197F1F700C00000B39BFECF83ECED
:1000D00099E00197F1F700C00000089520E030E0BA
:1000E000482F50E008C098B3962B98BB92E39A959E
:1000F000F1F72F5F3F4F24173507ACF320E030E0D6
:1001000090E0609508C048B3462348BB42E34A9557
:10011000F1F72F5F3F4FA901480F591F4034510598
:1001200094F308950F931F93CF93DF93082FC5E6A1
:10013000D0E015E68991602FD1DF1150D9F7DF911A
:10014000CF911F910F910895CF93DF93CDB7DEB775
:10015000C550CDBFDE011196E0E6F0E085E00190EC
:100160000D928150E1F783E187BB18BA00E010E0FF
:1001700085E0E82EF12CC801B7010CD021E030E079
:100180002C0F3D1F820F931FFC018081CBDF0F5F7F
:100190001F4FF1CF97FB092E07260AD077FD04D019
:1001A0000CD006D000201AF4709561957F4F089509
:1001B000F6F7909581959F4F0895AA1BBB1B51E1BF
:1001C00007C0AA1FBB1FA617B70710F0A61BB70BC7
:1001D000881F991F5A95A9F780959095BC01CD016C
:0601E0000895F894FFCF22
:1001E600000102101200020406080A0B0D0F11137B
:1001F6001517191B1D1E2022232527282A2B2D2ED5
:10020600303132333436373839393A3B3C3C3D3D70
:100216003E3E3F3F3F3F3F403F3F3F3F3F3E3E3DED
:100226003D3C3C3B3A393938373634333231302E5F
:100236002D2B2A2827252322201E1D1B19171513AF
:0A024600110F0D0B0A080604020058
:00000001FF
