:100000000EC026C025C024C023C022C021C020C0ED
:100010001FC01EC01DC01CC01BC01AC019C01124A7
:100020001FBECFEDCDBF10E0A0E6B0E0E2EFF0E004
:1000300002C005900D92A036B107D9F710E0A0E6F6
:10004000B0E001C01D92A036B107E1F73FD04FC02C
:10005000D7CF81E083BF83E08ABD83B7886083BF49
:100060008AB580628ABD80E489BD18BC0895882362
:1000700011F0C09A0895C0980895882311F0C19A8C
:100080000895C1980895882311F0C49A0895C498DA
:100090000895CF93C82F8170F6DF8C2F8270EDDF2B
:1000A0008C2F8470E4DFCF910895B399FECF83EC59
:1000B00099E00197F1F700C00000B39BFECF83ECFD
:1000C00099E00197F1F700C00000089583E187BB34
:1000D00018BABFDF88B5895C88BD8FE996E8A1E0D2
:1000E00081509040A040E1F700C00000F3CFF894A9
:0200F000FFCF40
:00000001FF
