:100000000EC026C025C024C023C022C021C020C0ED
:100010001FC01EC01DC01CC01BC01AC019C01124A7
:100020001FBECFEDCDBF10E0A0E6B0E0E2E1F1E011
:1000300002C005900D92A636B107D9F710E0A6E6EA
:10004000B0E001C01D92A636B107E1F731D05FC024
:10005000D7CF882311F0C09A0895C09808958823B7
:1000600011F0C19A0895C1980895882311F0C49A97
:100070000895C4980895CF93C82F8170F6DF8C2F10
:100080008270EDDF8C2F8470E4DFCF910895B399F7
:10009000FECF83EC99E00197F1F700C00000B39B1D
:1000A000FECF83EC99E00197F1F700C000000895BE
:1000B000CF93DF93CDB7DEB7C550CDBFC39A83E1F1
:1000C00087BBDE011196E0E6F0E085E001900D923D
:1000D0008150E1F700E015E0E1E0F0E0EC0FFD1FFA
:1000E000E00FF11D8081C7DF802F8F5F612F03D06C
:1000F000092FCDDFF1CF991B79E004C0991F961726
:1001000008F0961B881F7A95C9F780950895F89492
:02011000FFCF1F
:06011200000204050100DB
:00000001FF
