:100000000EC026C061C024C023C022C021C020C0B1
:100010001FC01EC01DC01CC01BC01AC019C01124A7
:100020001FBECFEDCDBF10E0A0E6B0E0ECE8F1E000
:1000300002C005900D92AA3CB107D9F710E0AAECD6
:10004000B0E001C01D92AC3CB107E1F765D09CC0A7
:10005000D7CF20E030E0482F50E008C098B3962B6F
:1000600098BB92E39A95F1F72F5F3F4F241735071E
:10007000ACF320E030E090E0609508C048B3462340
:1000800048BB42E34A95F1F72F5F3F4FA901480F64
:10009000591F4034510594F308950F931F93CF9344
:1000A000DF93082FC5E6D0E015E68091CA008823CB
:1000B00029F48991602FCDDF1150B9F7DF91CF91ED
:1000C0001F910F91089508951F920F920FB60F92EE
:1000D00011246F937F938F939F93B39914C0809152
:1000E000CB008F5F8093CB008091CB0065E040D048
:1000F0009093CB0081E08093CA0083ED90E3019759
:10010000F1F700C000009F918F917F916F910F9048
:100110000FBE0F901F9018951092CB0083E187BB04
:1001200088E088BB89EF90E00197F1F700C00000FC
:100130008BB780628BBFAB9A78941092CA00E09123
:10014000CB00F0E0E05AFF4F8081A7DF88B38C7EC0
:1001500088BB88E893E1E9EFF0E03197F1F700C060
:1001600000002091CA00222341F70197A1F7E5CFB3
:10017000991B79E004C0991F961708F0961B881FF9
:0C0180007A95C9F780950895F894FFCF98
:10018C00000102101200000000010102030304062A
:10019C0007080A0B0D0E10121416181A1B1D20221C
:1001AC00242527292B2D2F313234353738393B3C38
:1001BC003C3D3E3E3F3F3F403F3F3F3E3E3D3C3C53
:1001CC003B393837353432312F2D2B292725242232
:1001DC00201D1B1A18161412100E0D0B0A080706F8
:0A01EC0004030302010100000000FB
:00000001FF
